S0110000727473797374656D732E7372656315
S113000011C1000040C100003EC100003CC100001D
S11300103AC100000C94E20836C1000034C100006B
S113002032C1000030C100002EC100002CC100000C
S11300302AC1000028C1000026C1000024C100001C
S113004022C100000C94780A1EC100001CC10000EB
S11300501AC1000018C1000016C1000072C50000DA
S113006012C10000B4C10000B2C200000CC1000003
S11300700AC1000008C1000006C1000004C100005C
S113008002C1000000C10000FEC00000FCC000006E
S1130090DEC10000DBC20000F6C00000F4C00000B6
S11300A0F2C00000F0C00000A4C70000ECC00000D3
S11300B0EAC00000E8C00000E6C00000E4C00000A0
S11300C0E2C00000E0C00000DEC0000000C200008A
S11300D0FCC20000D8C000003AC2000035C30000D2
S11300E0D2C000006406680658065E06AD066C06BB
S11300F0720678067E0684068A0690069606AD0683
S11301009C06A206A806710ED70C770D910DE00D82
S1130110710EF10D210E450E600E0000090A020851
S11301200B0C0D0706030401000000000000000092
S113013000000000000000000000000000000000BB
S113014000000000000011100F000000000000007B
S1130150000000000000000000000000000000009B
S113016001021020200808102040102040800201C5
S113017002010804020101020408102040808040AA
S113018020100804020180040201804020100804A9
S11301900201080402010102040810204080010247
S11301A0040810204080050505050705080808080F
S11301B0020202020A0A08080404040401010101FB
S11301C001010101030303030303030304070707F6
S11301D00C0C0C0C0C0C0C0C02020202060606069B
S11301E0060606060B0B0B0B0B0B0B0B0000220079
S11301F0250028002B002E003100340002010000ED
S1130200050108010B0100002100240027002A0039
S11302102D003000330001010000040107010A0130
S1130220AC04A60E11241FBECFEFD1E2DEBFCDBFBA
S113023000E00CBF12E0A0E0B2E0EEEFFDE100E070
S11302400BBF02C007900D92A832B107D9F723E182
S1130250A8E2B2E001C01D92A032B207E1F712E0B9
S1130260C4E2D2E000E006C022970109FE010BBF00
S11302700E94E50EC032D10780E00807A9F70E946A
S1130280910E0C94FD0EBCCEFC0124853585F9013C
S1130290E05CFF4F80819181329620813181805CC6
S11302A09F4F821B930B8F739078992324F40197AB
S11302B0806C9F6F01960895FC0184859585FC01EF
S11302C0E05CFF4F40815181329620813181421799
S11302D0530741F020813181FC01E20FF31F80813B
S11302E090E008958FEF9FEF0895FC018485958534
S11302F0FC01E05CFF4F40815181329620813181C5
S11303004217530781F020813181DC01A20FB31F12
S11303108C91208131812F5F3F4F2F73332731839D
S1130320208390E008958FEF9FEF0895FC0181A151
S1130330882329F0A489B5898C9186FFFBCF11A26B
S113034008951F93CF93DF93EC018E859F85FC0165
S1130350E05CFF4F0190F081E02D3196EF73FF27B1
S11303601E2F7F2FDC01AE5BBF4F212F372F4D9106
S11303705C911197E417F507C1F3FC01E05CFF4FB2
S113038040815181FC01E40FF51F6083EE85FF85F8
S1130390E05CFF4F31832083EE89FF89408121E0B7
S11303A030E0C9010F8C02C0880F991F0A94E2F74C
S11303B0842B808381E089A3EC89FD89808180641A
S11303C0808381E090E0DF91CF911F9108951F9287
S11303D00F920FB60F9211240BB60F922F933F93E7
S11303E04F938F939F93AF93BF93EF93FF9380911A
S11303F0C00082FD1AC04091C6008091CC04909147
S1130400CD0401968F7399272091CE043091CF04A7
S11304108217930761F0ECECF4E0A081B181A4575A
S1130420BB4F4C939183808302C08091C600FF919F
S1130430EF91BF91AF919F918F914F913F912F91E8
S11304400F900BBE0F900FBE0F901F9018951F9228
S11304500F920FB60F9211240BB60F922F933F9366
S11304604F938F939F93AF93BF93EF93FF93809199
S1130470C80082FD1AC04091CE008091440490913E
S1130480450401968F7399272091460430914704BF
S11304908217930761F0E4E4F4E0A081B181AC5FDA
S11304A0BB4F4C939183808302C08091CE00FF9117
S11304B0EF91BF91AF919F918F914F913F912F9168
S11304C00F900BBE0F900FBE0F901F9018951F92A8
S11304D00F920FB60F9211240BB60F922F933F93E6
S11304E04F938F939F93AF93BF93EF93FF93809119
S11304F0D00082FD1AC04091D6008091BC03909137
S1130500BD0301968F7399272091BE033091BF03D9
S11305108217930761F0ECEBF3E0A081B181A4585A
S1130520BC4F4C939183808302C08091D600FF918D
S1130530EF91BF91AF919F918F914F913F912F91E7
S11305400F900BBE0F900FBE0F901F9018951F9227
S11305500F920FB60F9211240BB60F922F933F9365
S11305604F938F939F93AF93BF93EF93FF93809198
S1130570300182FD1AC0409136018091340390917C
S1130580350301968F7399272091360330913703F1
S11305908217930761F0E4E3F3E0A081B181AC50EA
S11305A0BD4F4C939183808302C080913601FF91AB
S11305B0EF91BF91AF919F918F914F913F912F9167
S11305C00F900BBE0F900FBE0F901F9018951F92A7
S11305D00F920FB60F9211240BB60F922F933F93E5
S11305E08F939F93AF93BF93EF93FF9320918804CE
S11305F03091890480918A0490918B0428173907DB
S113060031F4E1ECF0E080818F7D808310C0EAE872
S1130610F4E0A081B181A85BBB4F2C9180819181D2
S113062001968F739927918380832093C600FF914D
S1130630EF91BF91AF919F918F913F912F910F9027
S11306400BBE0F900FBE0F901F9018951F920F9224
S11306500FB60F9211240BB60F922F933F938F93E3
S11306609F93AF93BF93EF93FF9320910004309136
S1130670010480910204909103042817390731F48E
S1130680E9ECF0E080818F7D808310C0E2E0F4E04B
S1130690A081B181A054BC4F2C918081918101969D
S11306A08F739927918380832093CE00FF91EF91DC
S11306B0BF91AF919F918F913F912F910F900BBE5E
S11306C00F900FBE0F901F9018951F920F920FB6A8
S11306D00F9211240BB60F922F933F938F939F93F6
S11306E0AF93BF93EF93FF932091780330917903F5
S11306F080917A0390917B032817390731F4E1ED57
S1130700F0E080818F7D808310C0EAE7F3E0A08170
S1130710B181A85CBC4F2C918081918101968F732B
S11307209927918380832093D600FF91EF91BF9105
S1130730AF919F918F913F912F910F900BBE0F908E
S11307400FBE0F901F9018951F920F920FB60F9225
S113075011240BB60F922F933F938F939F93AF93D4
S1130760BF93EF93FF932091F0023091F1028091B7
S1130770F2029091F3022817390731F4E1E3F1E032
S113078080818F7D808310C0E2EFF2E0A081B1818F
S1130790A055BD4F2C918081918101968F7399272B
S11307A09183808320933601FF91EF91BF91AF91A4
S11307B09F918F913F912F910F900BBE0F900FBE81
S11307C00F901F9018958F929F92AF92BF92CF92E5
S11307D0DF92EF92FF920F931F93CF93DF93CDB7E6
S11307E0DEB7FC011382128288EE93E0A0E0B0E051
S11307F084839583A683B78384E192E09183808385
S11308007587648757874687318B208B138B028BC0
S1130810F58AE48AD78AC68AB18EA08E938E828E98
S11308208889848F8989858F8A89868F8B89878F28
S11308308C8980A3DF91CF911F910F91FF90EF904E
S1130840DF90CF90BF90AF909F908F900895CF92FC
S1130850DF92EF92FF92CF93DF93EC016A017B0169
S1130860411581EE58076105710509F1EC89FD898F
S113087081E090E008A002C0880F991F0A94E2F773
S1130880808360E079E08DE390E0A70196010E9407
S1130890BD0EBA01A901415051096109710976954A
S11308A0679557954795411580E15807A8F0EC895D
S11308B0FD89108260E874E88EE190E0A70196015A
S11308C00E94BD0EBA01A901415051096109710983
S11308D07695679557954795E889F9895083EA890C
S11308E0FB89408319A2EE89FF89408181E090E071
S11308F09C010C8C02C0220F331F0A94E2F7242BB4
S11309002083EE89FF8940819C010D8C02C0220F57
S1130910331F0A94E2F7242B2083EE89FF89408158
S11309209C010E8C02C0220F331F0A94E2F7242B81
S11309302083EE89FF8920810F8C02C0880F991FC4
S11309400A94E2F7809582238083DF91CF91FF9010
S1130950EF90DF90CF9008955F926F927F928F9285
S11309609F92AF92BF92CF92DF92EF92FF920F933A
S11309701F93CF93DF93552453945F920F2EF5E08A
S11309806F2EF02D6F920F2EF7E07F2EF02D7F92B9
S1130990D3E0DF93C4E0CF930F2EF6EC8F2E912C8F
S11309A0F02D0F2EF2ECAF2EB12CF02D0F2EF1EC1A
S11309B0CF2ED12CF02D0F2EF0ECEF2EF12CF02DAC
S11309C004EC10E025EC30E048E454E06CE874E01A
S11309D08EE892E0F8DE5F926F927F92DF93CF937E
S11309E00F2EFEEC8F2E912CF02D0F2EFAECAF2E45
S11309F0B12CF02D0F2EF9ECCF2ED12CF02D0F2E83
S1130A00F8ECEF2EF12CF02D0CEC10E02DEC30E096
S1130A1040EC53E064E074E08CE692E0D4DE5F9254
S1130A206F927F92DF93CF930F2EF6ED8F2E912C42
S1130A30F02D0F2EF2EDAF2EB12CF02D0F2EF1ED87
S1130A40CF2ED12CF02D0F2EF0EDEF2EF12CF02D1A
S1130A5004ED10E025ED30E048E353E06CE773E08B
S1130A608AE492E0B0DE5F926F927F92DF93CF933D
S1130A700F2EF6E38F2E99249394F02D0F2EF2E38C
S1130A80AF2EBB24B394F02D0F2EF1E3CF2EDD2433
S1130A90D394F02D0F2EF0E3EF2EFF24F394F02DDA
S1130AA004E311E025E331E040EB52E064EF72E04F
S1130AB088E292E088DE8DB79EB744960FB6F8942C
S1130AC09EBF0FBE8DBFDF91CF911F910F91FF90FD
S1130AD0EF90DF90CF90BF90AF909F908F907F90DA
S1130AE06F905F900895CF92DF92EF92FF920F93F1
S1130AF01F93CF93DF936C0141155105B1F0062F7D
S1130B00172FEA01E12CF12CD8016D918D01D6014A
S1130B10ED91FC910190F081E02DC6011995E80E4C
S1130B20F91E2197209781F702C0E12CF12CC7010F
S1130B30DF91CF911F910F91FF90EF90DF90CF90B5
S1130B4008951F920F920FB60F9211242F933F9383
S1130B508F939F93AF93BF938091D1049091D204CC
S1130B60A091D304B091D4043091D00423E0230F96
S1130B702D3720F40196A11DB11D05C026E8230FD1
S1130B800296A11DB11D2093D0048093D1049093AB
S1130B90D204A093D304B093D4048091D50490914B
S1130BA0D604A091D704B091D8040196A11DB11D1B
S1130BB08093D5049093D604A093D704B093D8041B
S1130BC0BF91AF919F918F913F912F910F900FBE45
S1130BD00F901F901895789484B5826084BD84B575
S1130BE0816084BD85B5826085BD85B5816085BD24
S1130BF0EEE6F0E0808181608083E1E8F0E010823D
S1130C00808182608083808181608083E0E8F0E07D
S1130C10808181608083E1EBF0E080818460808367
S1130C20E0EBF0E0808181608083E1E9F0E08081A5
S1130C3082608083808181608083E0E9F0E080814C
S1130C4081608083E1EAF0E080818260808380813A
S1130C5081608083E0EAF0E0808181608083E1E26A
S1130C60F1E0808182608083808181608083E0E222
S1130C70F1E0808181608083EAE7F0E08081846034
S1130C808083808182608083808181608083808191
S1130C90806880831092C100089590E0FC01319730
S1130CA0E131F10508F059C0EE58FF4F0C94DF0E06
S1130CB0E0E8F0E080818F7780830895E0E8F0E059
S1130CC080818F7D8083089584B58F7784BD089556
S1130CD084B58F7D84BD0895E0EBF0E080818F774B
S1130CE080830895E0EBF0E080818F7D8083089518
S1130CF0E0E9F0E080818F7780830895E0E9F0E017
S1130D0080818F7D80830895E0E9F0E08081877F92
S1130D1080830895E0EAF0E080818F7780830895EE
S1130D20E0EAF0E080818F7D80830895E0EAF0E0DE
S1130D308081877F80830895E0E2F1E080818F776E
S1130D4080830895E0E2F1E080818F7D80830895BF
S1130D50E0E2F1E08081877F80830895CF93DF9381
S1130D6090E0FC01E05AFE4F2491FC01EA55FE4F4D
S1130D708491882371F190E0880F991FFC01EA5F48
S1130D80FD4FA591B49184519E4FFC01C591D4911E
S1130D9061110BC08FB7F8949C91209592239C937A
S1130DA0E8812E2328838FBF14C0623061F48FB78B
S1130DB0F8943C91922F909593239C93E8812E2B49
S1130DC028838FBF06C08FB7F894EC912E2B2C93F9
S1130DD08FBFDF91CF9108951F93CF93DF93C62FD9
S1130DE0282F30E0F901E65EFE4F8491F901E05AC4
S1130DF0FE4F1491F901EA55FE4FD491DD23C1F061
S1130E0081114BDF2D2F30E0F901EE0FFF1FE4516C
S1130E10FE4FA591B4918FB7F894C11105C0EC9120
S1130E2010951E231C9303C0EC911E2B1C938FBFA3
S1130E30DF91CF911F910895FC01118210821382DA
S1130E4012828AE784830895CF93DF939093DC041E
S1130E508093DB0461E083E081DFA0E9B0E01C92D1
S1130E60E1E9F0E01082C1E7D0E08881877F8883E0
S1130E708C9183608C938081886180838C9188605D
S1130E808C9380818160808385EA91E090939900BE
S1130E908093980082ED90E090939D0080939C0055
S1130EA0A2E7B0E01C921092A000E1EAF0E0108208
S1130EB08081826080838081816080838091A400AE
S1130EC09091A50086509F4F9093A9008093A8000D
S1130ED082E089BB8C9182608C93DF91CF910895DD
S1130EE0E0E9F0E080818860808361E08AE074CF8B
S1130EF00895E0E9F0E08081877F808360E08AE004
S1130F006BCF0895CF93DF93EC01E0910002F09151
S1130F1001028091D9049091DA04E80FF91F40810D
S1130F204C8388819981992384F480379E4F24F4DB
S1130F3061E08DE051DF03C060E08DE04DDF88812A
S1130F40998101969983888351C050E027E030E06D
S1130F50281B390B61E070E0FB0102C0EE0FFF1F9C
S1130F602A95E2F79F0124233523232B59F051E0DE
S1130F7040E02A813B81233031050CF050E0252FDD
S1130F80342F0AC051E040E02A813B811216130637
S1130F900CF450E0252F342F4A815B814F5F5F4F63
S1130FA0443051051CF45B834A8305C01B821A82BA
S1130FB001969983888388819981089784F08CE0CD
S1130FC09EEF998388838091D9049091DA040196E5
S1130FD066E070E0BFD69093DA048093D904232BA3
S1130FE019F0CE017DDF02C0CE0183DFDF91CF9106
S1130FF008951F920F920FB60F9211240BB60F9201
S11310002F933F934F935F936F937F938F939F930C
S1131010AF93BF93EF93FF938091DB049091DC0433
S1131020892B69F0E8EAF0E08081918186509F4F36
S1131030918380838091DB049091DC0463DFFF91D2
S1131040EF91BF91AF919F918F917F916F915F913C
S11310504F913F912F910F900BBE0F900FBE0F90A9
S11310601F901895CF93DF93C2E0D1E088818F7BE6
S113107088838FEF4DD1988190649883DF91CF91CD
S11310800895EF92FF920F931F93CF93DF938B01F9
S1131090E42EC2E0D1E098819F7B98838F718062B7
S11310A037D1F82E6E2DC80124D1888180648883BD
S11310B08F2DDF91CF911F910F91FF90EF900895A5
S11310C080910A02882329F045E065E072E08AE015
S11310D0D8CF0895FF920F931F93CF93DF938B0183
S11310E0EA01F22EE2E0F1E090819F7B908310D13F
S11310F0FF2051F0209721F46F2DC801FAD004C0CD
S11311004F2DBE01C801E2D0E2E0F1E080818064AD
S11311108083DF91CF911F910F91FF900895EF92FB
S1131120FF920F931F93CF93DF93062FF72E142F65
S1131130442349F0362FE62FF72F2FEF21939E2FCC
S1131140931B9117D8F3C2E0D1E098819F7B9883D9
S11311508F71DED0E82E412F602F7F2D80E090E04C
S1131160B5D08881806488838E2DDF91CF911F91C3
S11311700F91FF90EF900895CF93DF931F92CDB717
S1131180DEB741E0BE016F5F7F4F80E0C8DF898139
S113119080FD14C08160898341E0BE016F5F7F4F91
S11311A080E06FDF83E091E00197F1F700C0000079
S11311B083E091E00197F1F700C000000F90DF9108
S11311C0CF9108951F920F920FB60F9211240BB670
S11311D00F922F933F934F935F936F937F938F93CC
S11311E09F93AF93BF93EF93FF93CF93DF931F929C
S11311F0CDB7DEB7E2E0F1E080818F7E808380812D
S11312008F7D80832FDF898386FF03C08E70869550
S11312108BD5898185FF1BC01092DD0451DFACDFC3
S11312208091030290910402880F991F9093040205
S11312308093030280910302909104028160909351
S113124004028093030281E08093020219C084FFA8
S113125017C020E040E050E060E070E081EE3ADF4B
S11312601092DD042DDF88DF809103029091040247
S1131270880F991F90930402809303021092020234
S113128080E7898341E0BE016F5F7F4F87E0F9DE2D
S1131290E2E0F1E0808180618083808180628083EC
S11312A00F90DF91CF91FF91EF91BF91AF919F91FB
S11312B08F917F916F915F914F913F912F910F90FB
S11312C00BBE0F900FBE0F901F901895442381F012
S11312D0282FA62FB72FE82FF92F81918EBD0DB49B
S11312E007FEFDCF8EB58D938E2F821B8417A8F336
S11312F00895662361F0282FE82FF92F81918EBD80
S11313000DB407FEFDCF8E2F821B8617B8F3089508
S11313108EBD0DB407FEFDCF8EB50895FFCFFF93AC
S1131320FFB7F894FF93FCB7FF93EF93DF93CF934A
S1131330BF93AF939F938F937F936F935F934F93D9
S11313403F932F931F930F93FF92EF92DF92CF92CD
S1131350BF92AF929F928F927F926F925F924F92C1
S11313603F922F921F920F928DB79EB790931813AE
S113137080931713E0911913F0911A13F395808158
S113138091819EBF8DBF0F901F902F903F904F90E3
S11313905F906F907F908F909F90AF90BF90CF9011
S11313A0DF90EF90FF900F911F912F913F914F91FC
S11313B05F916F917F918F919F91AF91BF91CF91E9
S11313C0DF91EF91FF91FCBFFF91FFBFFF91089563
S11313D0FF93FFB7F894FF93FCB7FF93EF93DF936A
S11313E0CF93BF93AF939F938F937F936F935F93A9
S11313F04F933F932F931F930F93FF92EF92DF929C
S1131400CF92BF92AF929F928F927F926F925F9290
S11314104F923F922F921F920F92E0911913F091E5
S11314201A138DB79EB7F395918380838091171318
S1131430909118139EBF8DBF0F901F902F903F90D7
S11314404F905F906F907F908F909F90AF90BF90E0
S1131450CF90DF90EF90FF900F911F912F913F91CC
S11314604F915F916F917F918F919F91AF91BF91B8
S1131470CF91DF91EF91FF91FCBFFF91FFBFFF91EF
S11314800895FC01DB01A25FBE4F1D921C92808176
S11314909181892B29F47183608373836283089516
S11314A0A281B381A25FBE4F6D937C9373836283E9
S11314B00895FC01EE5FFE4F22E0208333962081E5
S11314C0213039F0233049F4BC018CEE94E0D9CFBB
S11314D00895BC0180EF94E0D4CF0895CF93CFB7A3
S11314E0F89483E08093060573DFCFBFCF9108950E
S11314F0FF93FFB7F894F068FF93FCB7FF93EF9363
S1131500DF93CF93BF93AF939F938F937F936F9307
S11315105F934F933F932F931F930F93FF92EF92F9
S1131520DF92CF92BF92AF929F928F927F926F92EF
S11315305F924F923F922F921F920F92E091191354
S1131540F0911A138DB79EB7F395918380838091A0
S11315501713909118139EBF8DBF81E080930605E9
S1131560E8E8F0E080819181805F984D91838083E9
S113157080911713909118139EBF8DBF0F901F90E9
S11315802F903F904F905F906F907F908F909F909F
S1131590AF90BF90CF90DF90EF90FF900F911F918D
S11315A02F913F914F915F916F917F918F919F9177
S11315B0AF91BF91CF91DF91EF91FF91FCBFFF916C
S11315C0FFBFFF910895F894279A3091DE043F5F9E
S11315D054E660E02AE044E12F9A852F7FE798E300
S11315E0E1E071509040E040E1F700C0000081501C
S11315F0A9F72F9888E2FFE778E391E0F150704073
S11316009040E1F700C000008150A9F7332359F15D
S1131610962F2F9A822FEFE7F8E371E0E150F04024
S11316207040E1F700C000008150A9F72F98822F85
S1131630EFE7F8E371E0E150F0407040E1F700C0FB
S113164000008150A9F79F5F3913E3CF0CC09FE7D7
S1131650E8E3F1E09150E040F040E1F700C0000021
S11316608150A9F7B9CF842FF2CFCF93DF93609144
S1131670F4047091F5046115710509F48AC0809130
S1131680FE04823009F08BC08091E304882309F4BE
S113169086C081E08093DE0496DFFB01E25FFE4FAB
S11316A0808191819093F5048093F40411821082D7
S11316B002C067E072E1FB01E752FF4F108280E84D
S11316C07F96808332961082EAEFF4E080819181E4
S11316D0DB01A550BF4F9C9380819181FB01E450B5
S11316E0FF4F8083319610828EE69AE03196908384
S11316F0319680833196CB0189529F4F91838083A9
S113170082E0329680838091FC049091FD043196AE
S113171091838083EEEFF4E080811A968C9380911C
S1131720000590910105119611969C938E938091DA
S113173002059091030512968D939C93A4E0B5E065
S11317408D919C911197EB01C65FDE4F998388833D
S11317508D919C91DB01A45FBE4F8D939C938081FE
S1131760823029F0833049F08130B1F40CC088EE26
S113177094E087DE81E090E018C08CEE94E081DE96
S113178081E090E012C080EF94E07BDE81E090E0A5
S11317900CC080E090E009C081E090E006C0809138
S11317A0FE04882309F485CF78CFDF91CF91089583
S11317B0E9E4F6E029EF31E11082CF010E96958736
S11317C08487E05FFE4FE217F307B1F71092061229
S11317D01092051287E495E09093F5048093F40445
S11317E087EF90E19093F7048093F604EBE0F5E043
S11317F087E495E0118210823496E817F907D1F74F
S11318000F2EFAEFEF2EF4E0FF2EF02D8EE899E084
S1131810D70111969C938E930EEF14E0F801108279
S1131820CCEFD4E01982188220DF85E99EE0D7014D
S113183011969C938E9383E0F801808381E090E07D
S11318409983888312DF8091EC049091ED040097D2
S113185059F0FC01E25FFE4F208131813093ED04A9
S11318602093EC041182108290931A13809319131D
S1131870FC01EE5FFE4F21E02083279AEFE6F0E0C3
S1131880108210928000A1E8B0E01C928C918260DA
S11318908C938091840090918500805F984D909303
S11318A089008093880082E086BB80818260808387
S11318B00F2EFCEEAF2EF4E0BF2EF02D11E00F2E14
S11318C0F0EF2F2EF4E03F2EF02D0F2EF3E0DF2E5D
S11318D0F02DE12E0F2EF8EE8F2EF4E09F2EF02D3A
S11318E0F12C00E00F2EFEEF6F2EF4E07F2EF02D92
S11318F0CC24CA945F2C402E8091191390911A1312
S1131900FC01EE5FFE4F2081213009F0EDC18750CC
S1131910924109F040C0D5018D919C91009779F0D6
S1131920FC01E25FFE4F20813181D5012D933C9370
S11319301182108290931A138093191325C08091F9
S1131940E6049091E704009729F090931A1380938A
S113195019131AC0F10180819181009779F0FC017B
S1131960E25FFE4F20813181D1012D933C9311829E
S1131970108290931A138093191306C0E7E0F2E1E2
S1131980F0931A13E0931913E0911913F0911A13B9
S1131990EE5FFE4F1083C3DC8091060590E08A3031
S11319A0910508F09AC1FC01ED57FF4F08C2C091A0
S11319B01913D0911A13FE01EB5FFE4F8081813021
S11319C011F4CE0176DD8091E4049091E504019652
S11319D09093E5048093E4048091E6049091E704F5
S11319E00097C1F0C817D907A9F42091DF043091FA
S11319F0E0042F5F3F4F3093E0042093DF04C85F7F
S1131A00DE4F488159812417350720F082E0809306
S1131A10DE04D9DD2091E304222309F462C140915C
S1131A20E4045091E5042091E1043091E20442176A
S1131A30530709F056C15FC182E08093DE04C3DD21
S1131A40F401A081B181109709F440C0C091DF0472
S1131A50D091E004CD016FEF7C2DAF2DB02F109706
S1131A6069F4FC01E45FFE4F208131814091E4047C
S1131A705091E5042417350709F441C14091E40469
S1131A805091E504FC01E45FFE4F20813181241B69
S1131A90350B2617370708F4B901FC01E25FFE4F46
S1131AA0808191810097D9F6C093DF04D093E0043C
S1131AB0109771F0FD01E85FFE4F208131816217BC
S1131AC0730730F482E08093DE047DDD6FEF7C2DBC
S1131AD0B093E704A093E6048091E4049091E504B4
S1131AE0680F791F7093E2046093E104FAC0BDDDCE
S1131AF09093F9048093F8048091F8049091F90488
S1131B00892B09F4EEC0D3013C9180911913909173
S1131B101A13FC01EB5FFE4F2081231708F4FFC06A
S1131B20E0C06091191370911A13B2E167307B071A
S1131B3009F4D7C0FB01EE5FFE4F1082339680811B
S1131B408230D1F5F40180819181009789F1681781
S1131B50790721F5FB01E25FFE4F80819181D40179
S1131B608D939C931182108223C0FC01E25FFE4F8F
S1131B70208131816217730721F0C9010097A9F709
S1131B8017C0FB01E25FFE4F20813181DC01A25FBF
S1131B90BE4F2D933C93118210820AC0FC01E25F78
S1131BA0FE4F208131816217730759F3C901E6CFD3
S1131BB0F092E6040093E70484EF94E062DC91C0C1
S1131BC0C0911913D0911A13CE0173DCCB5FDE4F91
S1131BD08881823009F085C0F092E6040093E7041E
S1131BE080C08091E304811128C0E092E304F401F1
S1131BF0808191810097B9F04091E4045091E5040B
S1131C00FC01E45FFE4FDC01A65FBE4F2D913C91C9
S1131C10240F351F2F5F3F4F3183208332968081FD
S1131C209181009749F78091E4049091E50401962D
S1131C309093E2048093E10454C081E08093DE0435
S1131C40C2DC8091191390911A13FC01EB5FFE4FD3
S1131C502081223021F483E08093DE04B4DCA0915F
S1131C600905B0910A05E0910705F0910805B183D3
S1131C70A0832D913C91119733832283ED93FC93A0
S1131C8095838483168217822CC0E0910905F09114
S1131C900A05C081D181209769F01F838E81882332
S1131CA021F08C819D8105DC1E820A80DB81C02DA0
S1131CB0209799F78091191390911A13FADB11C0A8
S1131CC0E0910705F09108051683E0911913F0914E
S1131CD01A13EE5FFE4FD08204C084E08093DE04CA
S1131CE072DC1092060508CED5018D919C91009767
S1131CF009F016CE24CE892B09F4A2CE9DCEFC0188
S1131D00E45FFE4FDC01AA5FBE4F4D915C91240F4E
S1131D10351F31832083DC01C52DD42DAFCEC9DB23
S1131D20E0CF0E94EB0544DD089561E08DE016D814
S1131D3040E855E260E070E08EE892E00E942704FB
S1131D408BE193E181D880E090E008958BE193E109
S1131D5073C8089597FB072E16F4009406D077FDF8
S1131D6008D037D007FC05D03EF4909581959F4F5D
S1131D700895709561957F4F0895A1E21A2EAA1BCC
S1131D80BB1BFD010DC0AA1FBB1FEE1FFF1FA21727
S1131D90B307E407F50720F0A21BB30BE40BF50B24
S1131DA0661F771F881F991F1A9469F760957095AD
S1131DB0809590959B01AC01BD01CF010895EE0F74
S1131DC0FF1F0590F491E02D19940790F691E02DF2
S1131DD01994AA1BBB1B51E107C0AA1FBB1FA6175E
S1131DE0B70710F0A61BB70B881F991F5A95A9F7C0
S1111DF080959095BC01CD010895F894FFCF25
S1131DFE200201FF00E7E7E7E7E7202000000000EC
S1131E0E00000000A1017305440175015C019601F7
S10B1E1E616263646566000063
S9030000FC
